{
  "contractName": "Vote",
  "abi": [
    {
      "inputs": [
        {
          "internalType": "uint256",
          "name": "",
          "type": "uint256"
        }
      ],
      "name": "options",
      "outputs": [
        {
          "internalType": "string",
          "name": "",
          "type": "string"
        }
      ],
      "stateMutability": "view",
      "type": "function",
      "constant": true
    },
    {
      "inputs": [
        {
          "internalType": "uint256",
          "name": "",
          "type": "uint256"
        }
      ],
      "name": "votes",
      "outputs": [
        {
          "internalType": "uint256",
          "name": "",
          "type": "uint256"
        }
      ],
      "stateMutability": "view",
      "type": "function",
      "constant": true
    },
    {
      "inputs": [],
      "name": "getOptions",
      "outputs": [
        {
          "internalType": "string",
          "name": "",
          "type": "string"
        }
      ],
      "stateMutability": "view",
      "type": "function",
      "constant": true
    },
    {
      "inputs": [
        {
          "internalType": "uint256",
          "name": "option",
          "type": "uint256"
        }
      ],
      "name": "vote",
      "outputs": [],
      "stateMutability": "nonpayable",
      "type": "function"
    },
    {
      "inputs": [],
      "name": "getVotes",
      "outputs": [
        {
          "internalType": "uint256[]",
          "name": "",
          "type": "uint256[]"
        }
      ],
      "stateMutability": "view",
      "type": "function",
      "constant": true
    }
  ],
  "bytecode": "0x60806040526040518060a00160405280600060ff168152602001600060ff168152602001600060ff168152602001600060ff168152602001600060ff16815250600090600562000051929190620001db565b506040518060a001604052806040518060400160405280600681526020017f436f66666565000000000000000000000000000000000000000000000000000081525081526020016040518060400160405280600381526020017f546561000000000000000000000000000000000000000000000000000000000081525081526020016040518060400160405280600481526020017f426565720000000000000000000000000000000000000000000000000000000081525081526020016040518060400160405280600681526020017f576869736b79000000000000000000000000000000000000000000000000000081525081526020016040518060400160405280600881526020017f4d6f636b7461696c00000000000000000000000000000000000000000000000081525081525060019060056200019492919062000232565b5060405180606001604052806024815260200162000a906024913960039080519060200190620001c692919062000299565b50348015620001d457600080fd5b506200044c565b8280548282559060005260206000209081019282156200021f579160200282015b828111156200021e578251829060ff16905591602001919060010190620001fc565b5b5090506200022e919062000320565b5090565b82805482825590600052602060002090810192821562000286579160200282015b82811115620002855782518290805190602001906200027492919062000348565b509160200191906001019062000253565b5b509050620002959190620003cf565b5090565b828054600181600116156101000203166002900490600052602060002090601f016020900481019282601f10620002dc57805160ff19168380011785556200030d565b828001600101855582156200030d579182015b828111156200030c578251825591602001919060010190620002ef565b5b5090506200031c919062000320565b5090565b6200034591905b808211156200034157600081600090555060010162000327565b5090565b90565b828054600181600116156101000203166002900490600052602060002090601f016020900481019282601f106200038b57805160ff1916838001178555620003bc565b82800160010185558215620003bc579182015b82811115620003bb5782518255916020019190600101906200039e565b5b509050620003cb919062000320565b5090565b620003fd91905b80821115620003f95760008181620003ef919062000400565b50600101620003d6565b5090565b90565b50805460018160011615610100020316600290046000825580601f1062000428575062000449565b601f01602090049060005260206000209081019062000448919062000320565b5b50565b610634806200045c6000396000f3fe608060405234801561001057600080fd5b5060043610610074576000357c0100000000000000000000000000000000000000000000000000000000900480630121b93f146100795780630dc96015146100a7578063409e2205146101065780635df81330146101ad578063cc2ee196146101ef575b600080fd5b6100a56004803603602081101561008f57600080fd5b8101908080359060200190929190505050610272565b005b6100af61042a565b6040518080602001828103825283818151815260200191508051906020019060200280838360005b838110156100f25780820151818401526020810190506100d7565b505050509050019250505060405180910390f35b6101326004803603602081101561011c57600080fd5b8101908080359060200190929190505050610482565b6040518080602001828103825283818151815260200191508051906020019080838360005b83811015610172578082015181840152602081019050610157565b50505050905090810190601f16801561019f5780820380516001836020036101000a031916815260200191505b509250505060405180910390f35b6101d9600480360360208110156101c357600080fd5b810190808035906020019092919050505061053b565b6040518082815260200191505060405180910390f35b6101f761055c565b6040518080602001828103825283818151815260200191508051906020019080838360005b8381101561023757808201518184015260208101905061021c565b50505050905090810190601f1680156102645780820380516001836020036101000a031916815260200191505b509250505060405180910390f35b600260003373ffffffffffffffffffffffffffffffffffffffff1673ffffffffffffffffffffffffffffffffffffffff16815260200190815260200160002060009054906101000a900460ff1615610332576040517f08c379a000000000000000000000000000000000000000000000000000000000815260040180806020018281038252600f8152602001807f416c726561647920566f7465642021000000000000000000000000000000000081525060200191505060405180910390fd5b600581106103a8576040517f08c379a00000000000000000000000000000000000000000000000000000000081526004018080602001828103825260108152602001807f496e76616c6964204f7074696f6e20210000000000000000000000000000000081525060200191505060405180910390fd5b6001600260003373ffffffffffffffffffffffffffffffffffffffff1673ffffffffffffffffffffffffffffffffffffffff16815260200190815260200160002060006101000a81548160ff0219169083151502179055506000818154811061040d57fe5b906000526020600020016000815480929190600101919050555050565b6060600080548060200260200160405190810160405280929190818152602001828054801561047857602002820191906000526020600020905b815481526020019060010190808311610464575b5050505050905090565b6001818154811061048f57fe5b906000526020600020016000915090508054600181600116156101000203166002900480601f0160208091040260200160405190810160405280929190818152602001828054600181600116156101000203166002900480156105335780601f1061050857610100808354040283529160200191610533565b820191906000526020600020905b81548152906001019060200180831161051657829003601f168201915b505050505081565b6000818154811061054857fe5b906000526020600020016000915090505481565b606060038054600181600116156101000203166002900480601f0160208091040260200160405190810160405280929190818152602001828054600181600116156101000203166002900480156105f45780601f106105c9576101008083540402835291602001916105f4565b820191906000526020600020905b8154815290600101906020018083116105d757829003601f168201915b505050505090509056fea2646970667358221220f0ccb211345567399641ba8a8bb4b6b983127dbea41b1f9ab428e33ef14e48b364736f6c63430006000033436f66666565202c205465612c20426565722c20576869736b792c204d6f636b7461696c",
  "source": "pragma solidity ^0.6.0;\n\ncontract Vote {\n\n    uint [] public votes = [0,0,0,0,0];\n    string [] public options = [ \"Coffee\",\"Tea\",\"Beer\",\"Whisky\",\"Mocktail\" ];\n    mapping (address => bool) hasVoted; \n    string optionString = \"Coffee , Tea, Beer, Whisky, Mocktail\";\n    function getOptions() public view returns (string memory){\n\n        return optionString;\n    } \n\n    function vote (uint option) public {\n        require(!hasVoted[msg.sender],\"Already Voted !\"); \n        require(option<5,\"Invalid Option !\"); \n\n        hasVoted[msg.sender] = true;\n        votes[option] ++;\n    }\n    function getVotes() public view returns (uint [] memory) {\n        return votes;\n    }\n}\n",
  "sourcePath": "/home/kiran/Documents/Stuff/Projects/PluralTruffle/contracts/Vote.sol",
  "compiler": {
    "name": "solc",
    "version": "0.6.0+commit.26b70077.Emscripten.clang"
  },
  "schemaVersion": "3.1.0",
  "updatedAt": "2020-05-01T07:18:18.412Z",
  "networkType": "ethereum",
  "devdoc": {
    "methods": {}
  },
  "userdoc": {
    "methods": {}
  }
}